:020000020000FC
:100000000C9400380C9434000C9434000C9434009C
:100010000C9434000C9434000C9434000C94340090
:100020000C9434000C9434000C9434000C94340080
:100030000C9434000C9434000C9434000C94340070
:100040000C9434000C9434000C947E3E0C943400D8
:100050000C9434000C9434000C9434000C94340050
:0A0060000C9434000C943400189541
:10010000247F000010000000000000000000000735
:10011000747D00007E06960640017E06006F816FAA
:0601200000075007000774
:10700000A4B6BB242224332424BEA0EFADBFB7E036
:10701000BEBFC0EFD6E078940C94A13F0000043FBF
:107020004B4559009A938A9388279927C101A091CB
:10703000C000A7FF08958091C6009A938A938FEFAE
:107040009FEF08951E7004454D495400A091C00063
:10705000A5FFFCCF8093C600899199910895A3E381
:10706000A093C400AA27A093C500A8E9A093C100DB
:10707000A6E0A093C20008959A938A93FF91EF919E
:10708000EE0FFF1F85919591F795E795EF93FF938D
:107090000895FF91EF91BF91AF91119724F431962C
:1070A000EF93FF930895AF93BF93EE0FFF1FA5914A
:1070B000B591AF93BF930895FF91EF91892B89917B
:1070C000999131F03196EF93FF930895FF91EF91ED
:1070D000EE0FFF1FA591B591AF93BF930895467032
:1070E0000745584543555445959587958F939F93EC
:1070F000899199910895E070044558495400BF91D1
:10710000AF910895F8700121FC01899199919183C3
:10711000808389919991089506710140FC018191C4
:10712000919108951A7102494000A6DF1C0135D0E3
:10713000C3DFA338A1DF1E0130D0BEDFA638FC01BB
:1071400085919591089598DF1C0102C095DF1E017D
:107150002BD0E4CF2671034943408EDF1C011DD0A4
:10716000ABDFBB3889DF1E0118D0A6DFBE38FC01BB
:1071700099278491089580DF1C0102C07DDF1E01E4
:1071800013D09DC079DF0100F7D096DFCA3874DFD5
:107190008008089571DF00080895C0DFDDD0FCD0BD
:1071A0006BDF807FE9D00895B9DFECDFCBD064DFFF
:1071B0007F00E2D0F1C05671024921005DDF1C0161
:1071C000ECDF7ADFF43858DF1E01E7DF75DFF338D4
:1071D00053DF1E01A3DF50DF0080CED06DDFF1381A
:1071E00004D010D019D027D032C046DF1E0196DF60
:1071F000A2D042DF807FC0D09ED0BAD6A3D0C2DF5B
:10720000A1D0C1C639DF1E0189DFBCDFA5D034DFC4
:10721000807FB2D097D0CFC68ED02EDF807FACD00B
:107220002BDF1E018FD098D079DF26DF0100A4D09C
:10723000ABD088D069CF20DF1E0170DF1DDF1C01BD
:107240006DDF1ADF1E0160DF17DF1C015DCF14DF69
:107250007E0092D011DF1C0161DF94DF95D054DFF6
:107260000BDF1C0168D05ADF07DF00808DD06AD0A9
:107270004BCFB87105464C55534803D0DCDF01D0E5
:10728000DACFFADE1E014ADF56D0F6DE008074D077
:1072900013DF5139F1DEFF7F6FD0EEDE1E0134DFE8
:1072A000A4CF43C0747202432100FC0189919991DB
:1072B0008083899199910895A67202434000FC0150
:1072C000992780810895BA7242523E009A938A9318
:1072D000BF91AF919F918F91AF93BF930895C87263
:1072E000025240009A938A93BF91AF919F918F91E0
:1072F0008F939F93AF93BF930895E072423E5200E5
:10730000BF91AF918F939F93AF93BF9389919991C1
:1073100008959A938A93CE010895EC0189919991E9
:107320000895FC720444524F500089919991089538
:107330002473034455509A938A93089532730453E7
:1073400057415000DC0189919991BA93AA9308950D
:107350003E73044F564552009A938A938A819B81CB
:107360000895527302303C009923C1010CF4019737
:107370000895647303414E44A991B9918A239B23D4
:1073800008957473024F5200A991B9918A2B9B2BD7
:107390000895847303584F52A991B9918A279B2766
:1073A0000895947303554D2BA991B9918A0F9B1F92
:1073B0009A938A9399278827881F08959A938A9386
:1073C000FF91EF91EE0FFF1F859195910895A473A2
:1073D0000527424F4F54F2DF0001D073044241535E
:1073E0004500ECDF0401DC7303544D50E7DF060178
:1073F000E873045350414E00E1DF0801F273033E8D
:10740000494EDCDF0A01FE73042354494200D6DFF3
:107410000C010874042754494200D0DF0E01147493
:1074200005274556414CCADF1001207403484C44DF
:10743000C5DF12012C7407434F4E54455854BEDF2C
:107440001401367402435000B9DF1601447402443B
:107450005000B4DF18014E74044C41535400AEDFA9
:107460001A01587403424F54A9DF20016474034584
:107470004F54A4DF22016E74034355529FDF240151
:10748000787402322A00880F991F0895827402329C
:107490002F0095958795089501968E7F08958E7497
:1074A00002424C009A938A9380E299270895A0742F
:1074B000043F44555000082F092B11F09A938A93EA
:1074C0000895B07403524F548C01299139918991D8
:1074D00099913A932A931A930A930895C4740532A2
:1074E00044524F5089919991899199910895DE74F0
:1074F00004324455500030DF2FCFF074012B099136
:107500001991800F911F0895FC7406494E564552FB
:1075100054008095909508950A75064E454741544C
:107520004500F7DF019608951A7507444E45474117
:107530005445EFDFE5DEEDDF9FDD010035DFC6DE20
:10754000DECF2A75012D09911991081B190BC8016D
:107550000895447503414253EEDE06DFADDDB13AD6
:10756000E0CF08955475013D17DFA6DDBA3A84DDFA
:107570000000089581DDFFFF0895667502553C0007
:10758000BADF0ADFF1DE98DDC83ADCDECEDEECCE13
:10759000DADFEACE7C75013CAEDFFEDEE5DE8CDDB7
:1075A000D33AC3DEE1CECFDFDFCE9675034D41582F
:1075B000A2DFF2DF81DDDD3AC5DEB7CEAC75034D6B
:1075C000494E99DFBFDEE8DF77DDE73ABBDEADCEBF
:1075D000BE750657495448494E00BEDEB4DF90DE02
:1075E000B2DF74DECDCFD27506554D2F4D4F44001E
:1075F0007C01299139910991199140E15527000F9A
:10760000111F221F331F551F2E153F05520518F05D
:1076100003952E193F094A9589F73A932A93C80191
:107620000895E875054D2F4D4F4485DE9DDE83DEC0
:1076300067DE42DD1F3B75DF63DE7BDF47DE60DE3A
:107640007ADE92DE39DD263B4DDE59DF3FDED0DFCC
:107650003DDE32DD2E3B76DE64DF74DE0895247677
:10766000042F4D4F440078DE7FDE6CDEDECF607687
:10767000034D4F44F8DF59CE7076012FF4DF62DE00
:1076800054CE7A7603554D2A8C0189919991809F29
:10769000F00122273327909FF00D211D331D819F7C
:1076A000F00D211D331D919F200D311DCF019A93A7
:1076B0008A93C90108958476012A04D036CEB8761B
:1076C000024D2A0018DF68DE4FDE1ADE45DF3ADEA3
:1076D00043DFDADFFBDDF0DC6E3B2BDF0895C076A5
:1076E000052A2F4D4F440CDEEDDFF0DD9ECFE07616
:1076F000022A2F00F8DF26DE18CE1DDED3DEBCDC2A
:107700007F006BDFD9DC853B08950FDEB5DC5F00C1
:107710000895F076054445505448FBDDADDCEE0697
:1077200011DE11DFB6CE1477045049434B000196A9
:10773000AADEEFDDE4DEF2CC2877022B210002DEA8
:107740000BDEECDCDCDEFEDDDFCC3A7705434F55AB
:107750004E54FC010191CF019A938A93802F99276F
:1077600008954C770649434F554E5400E4DD019689
:10777000E9DDF3CC64770448455245006ADECECC9F
:10778000767703504144FADF77DC4000B8CE827749
:10779000035449423CDE0296C1CC907708404558DC
:1077A000454355544500BADC86DE86DCD83B9CDC7C
:1077B00008959C7705434D4F5645A2DD06C0A0DDD8
:1077C000C8DF90DD72DD82DD019663DCDF3B8ACEAF
:1077D000B2DD52DC610050DC7B00FFDE6DDCF33B90
:1077E0004BDC5F00C9DD08958BDD07C089DDB1DFAB
:1077F000EFDF78DD5ADD6ADD01964BDCF63B72CEB9
:10780000B4770446494C4C009DDD7ADD9BDD03C016
:1078100072DE4BDD01963DDC083C64CE2DDC0900B8
:107820009BDDBADE29DC0700A7DD69DE25DC300040
:1078300066CE22DC000086DDDBDE84DDEFCF027861
:10784000023C2300A0DFF4DD5FCC407804484F4CBD
:107850004400EEDD63DC01976EDDEADD55DC25CD0D
:107860004C780123BEDD5ADCE4DFF3CF62780223DB
:107870005300F8DF60DD20DC3E3CFBCF08956E78DE
:10788000045349474E0070DD17DC493CF5DB2D0001
:10789000E0DF0895807802233E0047DDC9DD3EDC4D
:1078A00072DF5ADD50CE47DD2BDD56DECBDFE1DF68
:1078B0000DDDE9DFF2CF967803484558DDDB100097
:1078C00090DD22CCB87807444543494D414CD4DB88
:1078D0000A0087DD19CC14DDCFDB300034DECCDBD1
:1078E00009003ADD59DEE8DB7D3CC6DB07002BDE14
:1078F00022DDC2DB0A0050DE47DD1DDDE7DC40CEC5
:10790000C678074E554D4245523F6BDD07DCF8DC2B
:10791000B3DB000021DD1DDF1FDDD1DCADDB24008A
:1079200023DECADB983CCADF0DDD01960BDD019733
:1079300013DDC5DCA1DB2D0017DEE2DC03DDD2DCCC
:1079400002DE00DDCFDCDBDDB6DDB6DBC83C019757
:10795000D7DCF1DCD5DCB3DC44DDE0DBBCDFACDB69
:10796000C13CF0DC3EDDDADBA8DEC9DDAFDC019630
:1079700090DBA93CDADCB6DC9FDBBF3CD2DDE2DC8D
:1079800006C0A4DCA3DCAEDDADDD76DB0000D3DC1D
:107990009DDCA8DD9BDC25DDB7CB0279034B455987
:1079A00041DB8ADBD03C08959C7905535041434527
:1079B00079DD4CCBC7DCA4DC02C0BDDC47DB69DB76
:1079C000DD3CB3CCAA7906535041434553006ADDF0
:1079D000F1CFC67904545950450092DC03C0B9DE9A
:1079E0008CDE34DB56DBEF3CA0CCD479054954590E
:1079F000504586DC03C0BADE80DE28DB4ADBFB3C78
:107A000094CCEC790243520037DB0D001FDB34DBF2
:107A10000A001CCB5BDC5ADC8EDC8DDCFC01EE0F3B
:107A2000FF1F85919591992734DD69DD019668DC0A
:107A300089DC66DC28DD0895EDDF0895EBDF96DE56
:107A4000D8CF047A022E52005BDC2DDF3FDC84DCD1
:107A50007ADDBDDFC2CF447A03552E5251DCF2DE0F
:107A600008DF1BDF33DC78DC6EDDB1DFB6CF587AA0
:107A700002552E00E7DEFDDE10DF9ADFAECF707A12
:107A8000012EAFDC4BDBF8DA0A0086DC15DB493D62
:107A9000F1CF09DF8DDFA1CF807A013F3FDBF1CF4E
:107AA000A5DC32DB59DC2CDC46DC06DB923D0197A1
:107AB0009DDC05DCF7DC58DDFFDA713D21DCF2DC12
:107AC0004BDCFDDB40DD50DC24DDF6DA703D019659
:107AD000E0DA5F3DFBDB29DCCFDA00002CDC089527
:107AE000F5DB3ADC2FDC0CDC81DCE9DB35DCE7DBC9
:107AF0002ADD7CDCE4DBD6DC37DDDEDA803D34DC1D
:107B0000DBDA883D0196C5DA743D15DCF9DB05C08A
:107B1000DDDB0BDC10DC0196F3DB1EDC14DDD6DBD9
:107B2000D5DB11CD19DCD2DB0ECDEADB33DE69DC2F
:107B3000F5DAE5DC6CDCF2DA64DCF0DA04DDC6DB15
:107B4000AFDF5FDCFCCD9A7A822E280095DA29001F
:107B5000ECDF43CF487B81288FDA2900E6DFC2CCF7
:107B6000567B815C5C0088DA0D00DFDFBBCC627B7A
:107B700004434841520096DCD8DFD7DBA0CB92DC2F
:107B8000D4DF7ADA1F001DDDF9DDB5DC8EDBB3DC76
:107B9000B6DC019671DA0000D5DB87DB0196D2DB1B
:107BA00023DEECCD707B04574F524400BEDFE6DD90
:107BB000A2DC7BDBA0DCA3DC01965EDA0000C2DB8A
:107BC00074DB0196BFDBF9DDD9CDA67B054E414DB7
:107BD000453ECCDD51DA1F00CFDB91DC5DCC59DCBA
:107BE0008FDB10C0B9DB7EDB4EDC89DC97DAB4DBDF
:107BF00079DB49DC84DC99DAA6DC5DDC5DDA023E07
:107C000065DB93CB46DAF23D37DA000008959ADB64
:107C100092DB55DBEBDB78DA8EDB80DA71DB029608
:107C200091DB89DB49DA263E86DB7FDA25DA3FFF06
:107C3000A3DB58DBB1DB40DA213E02961DDAFFFF01
:107C400004C00296D3DB6ADACADF05C03FDB6DDB16
:107C500079DB029777CB30DA303E049766DAE1CFF2
:107C600035DB63DB6FDB61DB029765DBB2DF6ACBA1
:107C7000E6DB54DACCCFF8DB51DA00DC4FDA8CDB10
:107C80001BDA4D3EF9D9080056DBE0D90BDCDED912
:107C9000DDD9F2D9FFFFF2DB52DD08954CDBD6D9F6
:107CA000EDDB3CDA02DBE8D90100E8DB48DD0895D2
:107CB00042DB0D9701DA623E0897FED9613EF2DBA6
:107CC000EDCFD9CF32DBDADB29DAD3DB1DCACC7BAF
:107CD00008494E49542D505452005CDD2CDBC4DB66
:107CE00013DACAD9500038DB0ADCC3DB0DDAC6DB95
:107CF0000BCAD07C06414343455054008FB68F9247
:107D00009A938A938091C600992715DB8097B4D9FE
:107D10005F0036DCD1D98E3EC1DF01C0C9DFAEDBEA
:107D2000FDD9A7DBFBD920DCC7D9A33EA7DBF6D959
:107D30009BDBF4D908DC6BDBE7D99ED9000061DB63
:107D4000E3D94ED0CADF8F908FBE189531DE01DDAA
:107D500044DE92D93F007AD957DE8FDAC0EFD6E001
:107D60004EC0AAD9B83E56DE01DD43DEF5DF47C07E
:107D700051DEDBCA7DDF9FDB9FD9CC3ED6D97CD9D3
:107D80004000FADAEEDF0D20636F6D70696C6520DC
:107D90006F6E6C79A9D90895B8DD8ED9D03E08955B
:107DA000D5CFF47C815B68D9747D3DDBADC964D9E6
:107DB000747D39DBB3D9D8DB7FD9E13E3FDE026F7A
:107DC0006B0022CEAADCD0DACCDF0A20756E6465A7
:107DD00072666C6F77000895A47D044556414C008F
:107DE000CEDEA9DA6CDA68D9F93E1DDBDCDCEADF2D
:107DF000F7CF9BDADCCFDA7D045155495400A0EF70
:107E0000ADBFB7E0BEBF789437D9000706DB7CD999
:107E1000CADF63DF0000000000000000FBCFF87D38
:107E20000127ADDE25DF48D9163F08958FCF207E8C
:107E30000444554D500020D9070062DAE5DD7BDAB5
:107E40001BD905000BDEB4DD17D90F0059DA81DC30
:107E500013D9030003DE1DD9273FAADD6CDA0CD944
:107E6000100071DB09D91000B8DD13D91E3F5DCABF
:107E7000307E054944554D50FFD8070041DAC4DD36
:107E80005ADAFAD80500EADD93DDF6D80F0038DAC1
:107E90006DDCF2D80300E2DDFCD8483F89DD4BDA27
:107EA000EBD8100050DBE8D81000A3DDF2D83F3F3C
:107EB0003CCA727E022E530030DC22DA03C012DA92
:107EC00036DCDFDDE6D85F3FB9DD04203C737000AF
:107ED000089516DAB4DA22D92EDAEED8793F2BDA01
:107EE00078DE00DA59DAE8D8793F02971ED9EED861
:107EF0006C3FECD91ACA3ADCBFD81F003DDA79CD05
:107F0000B47E05574F5244537FDD99DA07D9D3DA4F
:107F1000D3D8913F10DA4CDDEEDF029706D9D6D8E0
:107F2000873F089571DD8ADD0F33323865466F7201
:107F300074682076322E323167CD027F04434F4C75
:107F400044008DD899D80001F6D935D095D81E01B6
:107F5000E5D858D970D990D81E01E0D853D96BD93B
:107F6000C1DA39DA20DC4BCF3C7F0545524153451D
:107F7000FC018991999143E02AD041E128C06A7FB0
:107F8000055752495445FC0189919991DC01899129
:107F9000999160E80D901D9041E019D032966250A1
:107FA000C9F7E058F04045E012D041E110C0807FB1
:107FB000045245414400DC0189919991FC01899169
:107FC000999160E805900D926150E1F7089517B717
:0A7FD00010FDFDCF47BFE8950895AE
:10020000B07F02312B0001960895020202312D00C9
:10021000019708950C0202322B00029608951602EF
:1002200002322D00029708952002013E2991399152
:10023000281739070DC02A0202443E00099119917E
:1002400029913991E990F990E016F10628073907CC
:10025000C1011CF011F0019708950895380202447D
:100260002B0029913991E990F99049915991240FE6
:10027000351F8E1D9F1D3A932A9308955E020244F6
:100280002D0029913991E990F99049915991421B9A
:10029000530BE80AF90A5A934A93C70108957E025C
:1002A00005414C4C4F540E94293A0C949F3BA002AC
:1002B0000649414C4C4F54000E94243A0C949F3BF9
:1002C000B002012C0E94243A0E948E380E949B3971
:1002D0000E940D010E94243A0E9484380C94DE385A
:1002E0000E943C380E940E946201ECCFC202895BEE
:1002F000434F4D50494C455D0E94113F0E94493A81
:10030000EFCFEE0247434F4D50494C450E946639AE
:100310000E94433A0E949B390E948E380E946201DB
:100320000E940D010E949B390E948E380E9462013A
:100330000E940D010E94493A0E94803908950403E9
:10034000074C49544552414C0E943C383C380E946D
:100350007001B8CF0E943C3822000E94D63D0E9416
:100360009B390E945F390E94493A0E9480390E945D
:100370009B390E948E380E9462010E940D010E94EA
:100380004938B7010C949539400385424547494E99
:100390000E94243A0C948E388A0383464F520E945E
:1003A0003C3880390E947001F3CF9A03844E45583F
:1003B00054000E943C3849380E9470010E94493A1A
:1003C00081CFAC0385554E54494C0E943C385C3873
:1003D0000E9470010E94493A75CFC403854147418C
:1003E000494E0E943C3866380E9470010E94493A8A
:1003F00069CFDC03824946000E943C385C380E9489
:1004000070010E94C8010E943C38020055CF0E9432
:100410003C3866380E9470010E94C8010E943C3836
:1004200002000C945C01F40386524550454154008F
:100430000E94F1010E94C8010E94493A0E94A2391B
:100440000C94DE382804845448454E000E94C801AC
:100450000E94493A0E94A2390C94DE384604834136
:1004600046540E9495390E9407020E94C8010C94CC
:10047000A2395E0484454C5345000E9407020E9445
:10048000A2390C9426027404855748494C450E94B1
:10049000FC010C94A23988048641424F5254220038
:1004A0000E943C38B13E0E9470010E94AA0108954A
:1004B0009804822422000E943C381C3D0E94700156
:1004C0000E94AA010895B204822E22000E943C38A4
:1004D0001E3D0E9470010E94AA0108950E949B394E
:1004E0000E94383E0E945C3881020E941E3D072017
:1004F0007265446566200E94AC390E94A93B0E9447
:10050000ED3C0C9495390E949B390E945F390E9402
:100510005C38AF020E946E020E942F3A0E948E3811
:100520000E9462010E94243A0E948E380E942F3A53
:100530000E9484380E949B390E945F390E94493A88
:100540000E9480390E949B390E948E380E9462016D
:100550000E940D010E944938A2020C9495390E9414
:100560001C3D05206E616D650C94A63E0E94383ED0
:100570000E945B3A0E945C38CD020E9495380E942E
:100580003C3880000E94BC390E945C38C9020C943F
:1005900074380E94493A0C9470010E94853C0E9474
:1005A0005C38D4020C94A4010C94A63EC804054FF8
:1005B000564552540E942F3A0E948E380E941F3A8C
:1005C0000C948438AE05C13B0E943C3808950E94CB
:1005D00062010E94D33E0C94DA02C605015D0E94BE
:1005E0003C386C050E94133A0C948438DC05013ABF
:1005F0000E94BF3D0E9483020C94EF02EE05094960
:100600004D4D4544494154450E943C3880000E946C
:100610002F3A0E948E380E9495380E94C4390E9459
:100620002F3A0E948E380C94DE38FE050643524560
:10063000415445000E94BF3D0E9483020E94DA029D
:100640000E943C38DE390E9470010E94293A0E94C3
:100650008E380C9462012C0608434F4E5354414E81
:1006600054000E94BF3D0E9483020E94DA020E9451
:100670003C38DE390E9470010C946201580608561D
:1006800041524941424C45000E941A030E943C38A5
:0606900002000C9453016E
:00000001FF
